{
  "_format": "hh-sol-artifact-1",
  "contractName": "A3S",
  "sourceName": "contracts/A3S.sol",
  "abi": [
    {
      "inputs": [],
      "stateMutability": "nonpayable",
      "type": "constructor"
    },
    {
      "anonymous": false,
      "inputs": [
        {
          "indexed": true,
          "internalType": "address",
          "name": "owner",
          "type": "address"
        },
        {
          "indexed": true,
          "internalType": "address",
          "name": "approved",
          "type": "address"
        },
        {
          "indexed": true,
          "internalType": "uint256",
          "name": "tokenId",
          "type": "uint256"
        }
      ],
      "name": "Approval",
      "type": "event"
    },
    {
      "anonymous": false,
      "inputs": [
        {
          "indexed": true,
          "internalType": "address",
          "name": "owner",
          "type": "address"
        },
        {
          "indexed": true,
          "internalType": "address",
          "name": "operator",
          "type": "address"
        },
        {
          "indexed": false,
          "internalType": "bool",
          "name": "approved",
          "type": "bool"
        }
      ],
      "name": "ApprovalForAll",
      "type": "event"
    },
    {
      "anonymous": false,
      "inputs": [
        {
          "indexed": true,
          "internalType": "address",
          "name": "from",
          "type": "address"
        },
        {
          "indexed": true,
          "internalType": "address",
          "name": "to",
          "type": "address"
        },
        {
          "indexed": true,
          "internalType": "uint256",
          "name": "tokenId",
          "type": "uint256"
        }
      ],
      "name": "Transfer",
      "type": "event"
    },
    {
      "inputs": [
        {
          "internalType": "address",
          "name": "to",
          "type": "address"
        },
        {
          "internalType": "uint256",
          "name": "tokenId",
          "type": "uint256"
        }
      ],
      "name": "approve",
      "outputs": [],
      "stateMutability": "nonpayable",
      "type": "function"
    },
    {
      "inputs": [
        {
          "internalType": "address",
          "name": "owner",
          "type": "address"
        }
      ],
      "name": "balanceOf",
      "outputs": [
        {
          "internalType": "uint256",
          "name": "",
          "type": "uint256"
        }
      ],
      "stateMutability": "view",
      "type": "function"
    },
    {
      "inputs": [
        {
          "internalType": "uint256",
          "name": "tokenId",
          "type": "uint256"
        }
      ],
      "name": "getApproved",
      "outputs": [
        {
          "internalType": "address",
          "name": "",
          "type": "address"
        }
      ],
      "stateMutability": "view",
      "type": "function"
    },
    {
      "inputs": [
        {
          "internalType": "uint256",
          "name": "tokenId",
          "type": "uint256"
        }
      ],
      "name": "getFlag",
      "outputs": [
        {
          "internalType": "bool",
          "name": "",
          "type": "bool"
        }
      ],
      "stateMutability": "view",
      "type": "function"
    },
    {
      "inputs": [
        {
          "internalType": "uint256",
          "name": "tokenId",
          "type": "uint256"
        }
      ],
      "name": "getIowner",
      "outputs": [
        {
          "internalType": "address",
          "name": "",
          "type": "address"
        }
      ],
      "stateMutability": "view",
      "type": "function"
    },
    {
      "inputs": [],
      "name": "getMessageSender",
      "outputs": [
        {
          "internalType": "address",
          "name": "",
          "type": "address"
        }
      ],
      "stateMutability": "view",
      "type": "function"
    },
    {
      "inputs": [
        {
          "internalType": "uint256",
          "name": "tokenId",
          "type": "uint256"
        }
      ],
      "name": "getSender",
      "outputs": [
        {
          "internalType": "address",
          "name": "",
          "type": "address"
        }
      ],
      "stateMutability": "view",
      "type": "function"
    },
    {
      "inputs": [],
      "name": "getTokenCounter",
      "outputs": [
        {
          "internalType": "uint256",
          "name": "",
          "type": "uint256"
        }
      ],
      "stateMutability": "view",
      "type": "function"
    },
    {
      "inputs": [
        {
          "internalType": "uint256",
          "name": "tokenId",
          "type": "uint256"
        }
      ],
      "name": "getWalletAddressByTokenId",
      "outputs": [
        {
          "internalType": "address",
          "name": "",
          "type": "address"
        }
      ],
      "stateMutability": "view",
      "type": "function"
    },
    {
      "inputs": [
        {
          "internalType": "uint256",
          "name": "tokenId",
          "type": "uint256"
        }
      ],
      "name": "getWalletBalanceByTokenId",
      "outputs": [
        {
          "internalType": "uint256",
          "name": "",
          "type": "uint256"
        }
      ],
      "stateMutability": "view",
      "type": "function"
    },
    {
      "inputs": [
        {
          "internalType": "address",
          "name": "owner",
          "type": "address"
        },
        {
          "internalType": "address",
          "name": "operator",
          "type": "address"
        }
      ],
      "name": "isApprovedForAll",
      "outputs": [
        {
          "internalType": "bool",
          "name": "",
          "type": "bool"
        }
      ],
      "stateMutability": "view",
      "type": "function"
    },
    {
      "inputs": [],
      "name": "mintNft",
      "outputs": [
        {
          "internalType": "uint256",
          "name": "",
          "type": "uint256"
        }
      ],
      "stateMutability": "nonpayable",
      "type": "function"
    },
    {
      "inputs": [],
      "name": "name",
      "outputs": [
        {
          "internalType": "string",
          "name": "",
          "type": "string"
        }
      ],
      "stateMutability": "view",
      "type": "function"
    },
    {
      "inputs": [
        {
          "internalType": "uint256",
          "name": "tokenId",
          "type": "uint256"
        }
      ],
      "name": "ownerOf",
      "outputs": [
        {
          "internalType": "address",
          "name": "",
          "type": "address"
        }
      ],
      "stateMutability": "view",
      "type": "function"
    },
    {
      "inputs": [
        {
          "internalType": "address",
          "name": "from",
          "type": "address"
        },
        {
          "internalType": "address",
          "name": "to",
          "type": "address"
        },
        {
          "internalType": "uint256",
          "name": "tokenId",
          "type": "uint256"
        }
      ],
      "name": "safeTransferFrom",
      "outputs": [],
      "stateMutability": "nonpayable",
      "type": "function"
    },
    {
      "inputs": [
        {
          "internalType": "address",
          "name": "from",
          "type": "address"
        },
        {
          "internalType": "address",
          "name": "to",
          "type": "address"
        },
        {
          "internalType": "uint256",
          "name": "tokenId",
          "type": "uint256"
        },
        {
          "internalType": "bytes",
          "name": "data",
          "type": "bytes"
        }
      ],
      "name": "safeTransferFrom",
      "outputs": [],
      "stateMutability": "nonpayable",
      "type": "function"
    },
    {
      "inputs": [
        {
          "internalType": "address",
          "name": "operator",
          "type": "address"
        },
        {
          "internalType": "bool",
          "name": "approved",
          "type": "bool"
        }
      ],
      "name": "setApprovalForAll",
      "outputs": [],
      "stateMutability": "nonpayable",
      "type": "function"
    },
    {
      "inputs": [
        {
          "internalType": "bytes4",
          "name": "interfaceId",
          "type": "bytes4"
        }
      ],
      "name": "supportsInterface",
      "outputs": [
        {
          "internalType": "bool",
          "name": "",
          "type": "bool"
        }
      ],
      "stateMutability": "view",
      "type": "function"
    },
    {
      "inputs": [],
      "name": "symbol",
      "outputs": [
        {
          "internalType": "string",
          "name": "",
          "type": "string"
        }
      ],
      "stateMutability": "view",
      "type": "function"
    },
    {
      "inputs": [
        {
          "internalType": "uint256",
          "name": "tokenId",
          "type": "uint256"
        }
      ],
      "name": "tokenURI",
      "outputs": [
        {
          "internalType": "string",
          "name": "",
          "type": "string"
        }
      ],
      "stateMutability": "view",
      "type": "function"
    },
    {
      "inputs": [
        {
          "internalType": "address",
          "name": "from",
          "type": "address"
        },
        {
          "internalType": "address",
          "name": "to",
          "type": "address"
        },
        {
          "internalType": "uint256",
          "name": "tokenId",
          "type": "uint256"
        }
      ],
      "name": "transferFrom",
      "outputs": [],
      "stateMutability": "nonpayable",
      "type": "function"
    },
    {
      "inputs": [
        {
          "internalType": "uint256",
          "name": "tokenId",
          "type": "uint256"
        },
        {
          "internalType": "address payable",
          "name": "to",
          "type": "address"
        },
        {
          "internalType": "uint256",
          "name": "amount",
          "type": "uint256"
        }
      ],
      "name": "withdraw",
      "outputs": [],
      "stateMutability": "payable",
      "type": "function"
    }
  ],
  "bytecode": "0x60806040523480156200001157600080fd5b506040518060400160405280601881526020017f4133535f646563656e7472616c697a65645f77616c6c657400000000000000008152506040518060400160405280600381526020017f4133530000000000000000000000000000000000000000000000000000000000815250816000908051906020019062000096929190620000c0565b508060019080519060200190620000af929190620000c0565b5050506000600681905550620001d5565b828054620000ce906200019f565b90600052602060002090601f016020900481019282620000f257600085556200013e565b82601f106200010d57805160ff19168380011785556200013e565b828001600101855582156200013e579182015b828111156200013d57825182559160200191906001019062000120565b5b5090506200014d919062000151565b5090565b5b808211156200016c57600081600090555060010162000152565b5090565b7f4e487b7100000000000000000000000000000000000000000000000000000000600052602260045260246000fd5b60006002820490506001821680620001b857607f821691505b60208210811415620001cf57620001ce62000170565b5b50919050565b61353480620001e56000396000f3fe6080604052600436106101355760003560e01c806395d89b41116100ab578063b971302a1161006f578063b971302a1461045e578063c2229fea1461049b578063c87b56dd146104c6578063dd6a9ae014610503578063e63697c814610540578063e985e9c51461055c57610135565b806395d89b411461036757806395fdc99914610392578063a22cb465146103cf578063a6e621c7146103f8578063b88d4fde1461043557610135565b806342842e0e116100fd57806342842e0e146102315780636352211e1461025a5780636e02007d1461029757806370a08231146102c257806376167a89146102ff578063870113d31461032a57610135565b806301ffc9a71461013a57806306fdde0314610177578063081812fc146101a2578063095ea7b3146101df57806323b872dd14610208575b600080fd5b34801561014657600080fd5b50610161600480360381019061015c9190611e1d565b610599565b60405161016e9190611e65565b60405180910390f35b34801561018357600080fd5b5061018c61067b565b6040516101999190611f19565b60405180910390f35b3480156101ae57600080fd5b506101c960048036038101906101c49190611f71565b61070d565b6040516101d69190611fdf565b60405180910390f35b3480156101eb57600080fd5b5061020660048036038101906102019190612026565b610753565b005b34801561021457600080fd5b5061022f600480360381019061022a9190612066565b61086b565b005b34801561023d57600080fd5b5061025860048036038101906102539190612066565b6108cb565b005b34801561026657600080fd5b50610281600480360381019061027c9190611f71565b6108eb565b60405161028e9190611fdf565b60405180910390f35b3480156102a357600080fd5b506102ac61099d565b6040516102b991906120c8565b60405180910390f35b3480156102ce57600080fd5b506102e960048036038101906102e491906120e3565b6109a7565b6040516102f691906120c8565b60405180910390f35b34801561030b57600080fd5b50610314610a5f565b6040516103219190611fdf565b60405180910390f35b34801561033657600080fd5b50610351600480360381019061034c9190611f71565b610a67565b60405161035e9190611fdf565b60405180910390f35b34801561037357600080fd5b5061037c610b26565b6040516103899190611f19565b60405180910390f35b34801561039e57600080fd5b506103b960048036038101906103b49190611f71565b610bb8565b6040516103c69190611e65565b60405180910390f35b3480156103db57600080fd5b506103f660048036038101906103f1919061213c565b610c77565b005b34801561040457600080fd5b5061041f600480360381019061041a9190611f71565b610c8d565b60405161042c9190611fdf565b60405180910390f35b34801561044157600080fd5b5061045c600480360381019061045791906122b1565b610cca565b005b34801561046a57600080fd5b5061048560048036038101906104809190611f71565b610d2c565b6040516104929190611fdf565b60405180910390f35b3480156104a757600080fd5b506104b0610deb565b6040516104bd91906120c8565b60405180910390f35b3480156104d257600080fd5b506104ed60048036038101906104e89190611f71565b610e97565b6040516104fa9190611f19565b60405180910390f35b34801561050f57600080fd5b5061052a60048036038101906105259190611f71565b610eff565b60405161053791906120c8565b60405180910390f35b61055a60048036038101906105559190612372565b610fb9565b005b34801561056857600080fd5b50610583600480360381019061057e91906123c5565b6110b4565b6040516105909190611e65565b60405180910390f35b60007f80ac58cd000000000000000000000000000000000000000000000000000000007bffffffffffffffffffffffffffffffffffffffffffffffffffffffff1916827bffffffffffffffffffffffffffffffffffffffffffffffffffffffff1916148061066457507f5b5e139f000000000000000000000000000000000000000000000000000000007bffffffffffffffffffffffffffffffffffffffffffffffffffffffff1916827bffffffffffffffffffffffffffffffffffffffffffffffffffffffff1916145b80610674575061067382611148565b5b9050919050565b60606000805461068a90612434565b80601f01602080910402602001604051908101604052809291908181526020018280546106b690612434565b80156107035780601f106106d857610100808354040283529160200191610703565b820191906000526020600020905b8154815290600101906020018083116106e657829003601f168201915b5050505050905090565b6000610718826111b2565b6004600083815260200190815260200160002060009054906101000a900473ffffffffffffffffffffffffffffffffffffffff169050919050565b600061075e826108eb565b90508073ffffffffffffffffffffffffffffffffffffffff168373ffffffffffffffffffffffffffffffffffffffff1614156107cf576040517f08c379a00000000000000000000000000000000000000000000000000000000081526004016107c6906124d8565b60405180910390fd5b8073ffffffffffffffffffffffffffffffffffffffff166107ee6111fd565b73ffffffffffffffffffffffffffffffffffffffff16148061081d575061081c816108176111fd565b6110b4565b5b61085c576040517f08c379a00000000000000000000000000000000000000000000000000000000081526004016108539061256a565b60405180910390fd5b6108668383611205565b505050565b61087c6108766111fd565b826112be565b6108bb576040517f08c379a00000000000000000000000000000000000000000000000000000000081526004016108b2906125fc565b60405180910390fd5b6108c6838383611353565b505050565b6108e683838360405180602001604052806000815250610cca565b505050565b6000806002600084815260200190815260200160002060009054906101000a900473ffffffffffffffffffffffffffffffffffffffff169050600073ffffffffffffffffffffffffffffffffffffffff168173ffffffffffffffffffffffffffffffffffffffff161415610994576040517f08c379a000000000000000000000000000000000000000000000000000000000815260040161098b90612668565b60405180910390fd5b80915050919050565b6000600654905090565b60008073ffffffffffffffffffffffffffffffffffffffff168273ffffffffffffffffffffffffffffffffffffffff161415610a18576040517f08c379a0000000000000000000000000000000000000000000000000000000008152600401610a0f906126fa565b60405180910390fd5b600360008373ffffffffffffffffffffffffffffffffffffffff1673ffffffffffffffffffffffffffffffffffffffff168152602001908152602001600020549050919050565b600033905090565b6000806007600084815260200190815260200160002060009054906101000a900473ffffffffffffffffffffffffffffffffffffffff1690508073ffffffffffffffffffffffffffffffffffffffff1663893d20e86040518163ffffffff1660e01b815260040160206040518083038186803b158015610ae657600080fd5b505afa158015610afa573d6000803e3d6000fd5b505050506040513d601f19601f82011682018060405250810190610b1e919061272f565b915050919050565b606060018054610b3590612434565b80601f0160208091040260200160405190810160405280929190818152602001828054610b6190612434565b8015610bae5780601f10610b8357610100808354040283529160200191610bae565b820191906000526020600020905b815481529060010190602001808311610b9157829003601f168201915b5050505050905090565b6000806007600084815260200190815260200160002060009054906101000a900473ffffffffffffffffffffffffffffffffffffffff1690508073ffffffffffffffffffffffffffffffffffffffff1663f96339306040518163ffffffff1660e01b815260040160206040518083038186803b158015610c3757600080fd5b505afa158015610c4b573d6000803e3d6000fd5b505050506040513d601f19601f82011682018060405250810190610c6f9190612771565b915050919050565b610c89610c826111fd565b83836115ba565b5050565b60006007600083815260200190815260200160002060009054906101000a900473ffffffffffffffffffffffffffffffffffffffff169050919050565b610cdb610cd56111fd565b836112be565b610d1a576040517f08c379a0000000000000000000000000000000000000000000000000000000008152600401610d11906125fc565b60405180910390fd5b610d2684848484611727565b50505050565b6000806007600084815260200190815260200160002060009054906101000a900473ffffffffffffffffffffffffffffffffffffffff1690508073ffffffffffffffffffffffffffffffffffffffff16635e01eb5a6040518163ffffffff1660e01b815260040160206040518083038186803b158015610dab57600080fd5b505afa158015610dbf573d6000803e3d6000fd5b505050506040513d601f19601f82011682018060405250810190610de3919061272f565b915050919050565b600080604051610dfa90611da4565b604051809103906000f080158015610e16573d6000803e3d6000fd5b509050610e2533600654611783565b8060076000600654815260200190815260200160002060006101000a81548173ffffffffffffffffffffffffffffffffffffffff021916908373ffffffffffffffffffffffffffffffffffffffff1602179055506001600654610e8891906127cd565b60068190555060065491505090565b6060610ea2826111b2565b6000610eac6117a1565b90506000815111610ecc5760405180602001604052806000815250610ef7565b80610ed6846117de565b604051602001610ee792919061285f565b6040516020818303038152906040525b915050919050565b60006007600083815260200190815260200160002060009054906101000a900473ffffffffffffffffffffffffffffffffffffffff1673ffffffffffffffffffffffffffffffffffffffff1663329a27e76040518163ffffffff1660e01b815260040160206040518083038186803b158015610f7a57600080fd5b505afa158015610f8e573d6000803e3d6000fd5b505050506040513d601f19601f82011682018060405250810190610fb29190612898565b9050919050565b610fca610fc46111fd565b846112be565b611009576040517f08c379a0000000000000000000000000000000000000000000000000000000008152600401611000906125fc565b60405180910390fd5b60006007600085815260200190815260200160002060009054906101000a900473ffffffffffffffffffffffffffffffffffffffff1690508073ffffffffffffffffffffffffffffffffffffffff1663f3fef3a384846040518363ffffffff1660e01b815260040161107c9291906128d4565b600060405180830381600087803b15801561109657600080fd5b505af11580156110aa573d6000803e3d6000fd5b5050505050505050565b6000600560008473ffffffffffffffffffffffffffffffffffffffff1673ffffffffffffffffffffffffffffffffffffffff16815260200190815260200160002060008373ffffffffffffffffffffffffffffffffffffffff1673ffffffffffffffffffffffffffffffffffffffff16815260200190815260200160002060009054906101000a900460ff16905092915050565b60007f01ffc9a7000000000000000000000000000000000000000000000000000000007bffffffffffffffffffffffffffffffffffffffffffffffffffffffff1916827bffffffffffffffffffffffffffffffffffffffffffffffffffffffff1916149050919050565b6111bb8161193f565b6111fa576040517f08c379a00000000000000000000000000000000000000000000000000000000081526004016111f190612668565b60405180910390fd5b50565b600033905090565b816004600083815260200190815260200160002060006101000a81548173ffffffffffffffffffffffffffffffffffffffff021916908373ffffffffffffffffffffffffffffffffffffffff160217905550808273ffffffffffffffffffffffffffffffffffffffff16611278836108eb565b73ffffffffffffffffffffffffffffffffffffffff167f8c5be1e5ebec7d5bd14f71427d1e84f3dd0314c0f7b2291e5b200ac8c7c3b92560405160405180910390a45050565b6000806112ca836108eb565b90508073ffffffffffffffffffffffffffffffffffffffff168473ffffffffffffffffffffffffffffffffffffffff16148061130c575061130b81856110b4565b5b8061134a57508373ffffffffffffffffffffffffffffffffffffffff166113328461070d565b73ffffffffffffffffffffffffffffffffffffffff16145b91505092915050565b8273ffffffffffffffffffffffffffffffffffffffff16611373826108eb565b73ffffffffffffffffffffffffffffffffffffffff16146113c9576040517f08c379a00000000000000000000000000000000000000000000000000000000081526004016113c09061296f565b60405180910390fd5b600073ffffffffffffffffffffffffffffffffffffffff168273ffffffffffffffffffffffffffffffffffffffff161415611439576040517f08c379a000000000000000000000000000000000000000000000000000000000815260040161143090612a01565b60405180910390fd5b6114448383836119ab565b61144f600082611205565b6001600360008573ffffffffffffffffffffffffffffffffffffffff1673ffffffffffffffffffffffffffffffffffffffff168152602001908152602001600020600082825461149f9190612a21565b925050819055506001600360008473ffffffffffffffffffffffffffffffffffffffff1673ffffffffffffffffffffffffffffffffffffffff16815260200190815260200160002060008282546114f691906127cd565b92505081905550816002600083815260200190815260200160002060006101000a81548173ffffffffffffffffffffffffffffffffffffffff021916908373ffffffffffffffffffffffffffffffffffffffff160217905550808273ffffffffffffffffffffffffffffffffffffffff168473ffffffffffffffffffffffffffffffffffffffff167fddf252ad1be2c89b69c2b068fc378daa952ba7f163c4a11628f55a4df523b3ef60405160405180910390a46115b58383836119b0565b505050565b8173ffffffffffffffffffffffffffffffffffffffff168373ffffffffffffffffffffffffffffffffffffffff161415611629576040517f08c379a000000000000000000000000000000000000000000000000000000000815260040161162090612aa1565b60405180910390fd5b80600560008573ffffffffffffffffffffffffffffffffffffffff1673ffffffffffffffffffffffffffffffffffffffff16815260200190815260200160002060008473ffffffffffffffffffffffffffffffffffffffff1673ffffffffffffffffffffffffffffffffffffffff16815260200190815260200160002060006101000a81548160ff0219169083151502179055508173ffffffffffffffffffffffffffffffffffffffff168373ffffffffffffffffffffffffffffffffffffffff167f17307eab39ab6107e8899845ad3d59bd9653f200f220920489ca2b5937696c318360405161171a9190611e65565b60405180910390a3505050565b611732848484611353565b61173e848484846119b5565b61177d576040517f08c379a000000000000000000000000000000000000000000000000000000000815260040161177490612b33565b60405180910390fd5b50505050565b61179d828260405180602001604052806000815250611b4c565b5050565b60606040518060400160405280600a81526020017f746f6b656e4964203a2000000000000000000000000000000000000000000000815250905090565b60606000821415611826576040518060400160405280600181526020017f3000000000000000000000000000000000000000000000000000000000000000815250905061193a565b600082905060005b6000821461185857808061184190612b53565b915050600a826118519190612bcb565b915061182e565b60008167ffffffffffffffff81111561187457611873612186565b5b6040519080825280601f01601f1916602001820160405280156118a65781602001600182028036833780820191505090505b5090505b60008514611933576001826118bf9190612a21565b9150600a856118ce9190612bfc565b60306118da91906127cd565b60f81b8183815181106118f0576118ef612c2d565b5b60200101907effffffffffffffffffffffffffffffffffffffffffffffffffffffffffffff1916908160001a905350600a8561192c9190612bcb565b94506118aa565b8093505050505b919050565b60008073ffffffffffffffffffffffffffffffffffffffff166002600084815260200190815260200160002060009054906101000a900473ffffffffffffffffffffffffffffffffffffffff1673ffffffffffffffffffffffffffffffffffffffff1614159050919050565b505050565b505050565b60006119d68473ffffffffffffffffffffffffffffffffffffffff16611ba7565b15611b3f578373ffffffffffffffffffffffffffffffffffffffff1663150b7a026119ff6111fd565b8786866040518563ffffffff1660e01b8152600401611a219493929190612cb1565b602060405180830381600087803b158015611a3b57600080fd5b505af1925050508015611a6c57506040513d601f19601f82011682018060405250810190611a699190612d12565b60015b611aef573d8060008114611a9c576040519150601f19603f3d011682016040523d82523d6000602084013e611aa1565b606091505b50600081511415611ae7576040517f08c379a0000000000000000000000000000000000000000000000000000000008152600401611ade90612b33565b60405180910390fd5b805181602001fd5b63150b7a0260e01b7bffffffffffffffffffffffffffffffffffffffffffffffffffffffff1916817bffffffffffffffffffffffffffffffffffffffffffffffffffffffff191614915050611b44565b600190505b949350505050565b611b568383611bca565b611b6360008484846119b5565b611ba2576040517f08c379a0000000000000000000000000000000000000000000000000000000008152600401611b9990612b33565b60405180910390fd5b505050565b6000808273ffffffffffffffffffffffffffffffffffffffff163b119050919050565b600073ffffffffffffffffffffffffffffffffffffffff168273ffffffffffffffffffffffffffffffffffffffff161415611c3a576040517f08c379a0000000000000000000000000000000000000000000000000000000008152600401611c3190612d8b565b60405180910390fd5b611c438161193f565b15611c83576040517f08c379a0000000000000000000000000000000000000000000000000000000008152600401611c7a90612df7565b60405180910390fd5b611c8f600083836119ab565b6001600360008473ffffffffffffffffffffffffffffffffffffffff1673ffffffffffffffffffffffffffffffffffffffff1681526020019081526020016000206000828254611cdf91906127cd565b92505081905550816002600083815260200190815260200160002060006101000a81548173ffffffffffffffffffffffffffffffffffffffff021916908373ffffffffffffffffffffffffffffffffffffffff160217905550808273ffffffffffffffffffffffffffffffffffffffff16600073ffffffffffffffffffffffffffffffffffffffff167fddf252ad1be2c89b69c2b068fc378daa952ba7f163c4a11628f55a4df523b3ef60405160405180910390a4611da0600083836119b0565b5050565b6106e780612e1883390190565b6000604051905090565b600080fd5b600080fd5b60007fffffffff0000000000000000000000000000000000000000000000000000000082169050919050565b611dfa81611dc5565b8114611e0557600080fd5b50565b600081359050611e1781611df1565b92915050565b600060208284031215611e3357611e32611dbb565b5b6000611e4184828501611e08565b91505092915050565b60008115159050919050565b611e5f81611e4a565b82525050565b6000602082019050611e7a6000830184611e56565b92915050565b600081519050919050565b600082825260208201905092915050565b60005b83811015611eba578082015181840152602081019050611e9f565b83811115611ec9576000848401525b50505050565b6000601f19601f8301169050919050565b6000611eeb82611e80565b611ef58185611e8b565b9350611f05818560208601611e9c565b611f0e81611ecf565b840191505092915050565b60006020820190508181036000830152611f338184611ee0565b905092915050565b6000819050919050565b611f4e81611f3b565b8114611f5957600080fd5b50565b600081359050611f6b81611f45565b92915050565b600060208284031215611f8757611f86611dbb565b5b6000611f9584828501611f5c565b91505092915050565b600073ffffffffffffffffffffffffffffffffffffffff82169050919050565b6000611fc982611f9e565b9050919050565b611fd981611fbe565b82525050565b6000602082019050611ff46000830184611fd0565b92915050565b61200381611fbe565b811461200e57600080fd5b50565b60008135905061202081611ffa565b92915050565b6000806040838503121561203d5761203c611dbb565b5b600061204b85828601612011565b925050602061205c85828601611f5c565b9150509250929050565b60008060006060848603121561207f5761207e611dbb565b5b600061208d86828701612011565b935050602061209e86828701612011565b92505060406120af86828701611f5c565b9150509250925092565b6120c281611f3b565b82525050565b60006020820190506120dd60008301846120b9565b92915050565b6000602082840312156120f9576120f8611dbb565b5b600061210784828501612011565b91505092915050565b61211981611e4a565b811461212457600080fd5b50565b60008135905061213681612110565b92915050565b6000806040838503121561215357612152611dbb565b5b600061216185828601612011565b925050602061217285828601612127565b9150509250929050565b600080fd5b600080fd5b7f4e487b7100000000000000000000000000000000000000000000000000000000600052604160045260246000fd5b6121be82611ecf565b810181811067ffffffffffffffff821117156121dd576121dc612186565b5b80604052505050565b60006121f0611db1565b90506121fc82826121b5565b919050565b600067ffffffffffffffff82111561221c5761221b612186565b5b61222582611ecf565b9050602081019050919050565b82818337600083830152505050565b600061225461224f84612201565b6121e6565b9050828152602081018484840111156122705761226f612181565b5b61227b848285612232565b509392505050565b600082601f8301126122985761229761217c565b5b81356122a8848260208601612241565b91505092915050565b600080600080608085870312156122cb576122ca611dbb565b5b60006122d987828801612011565b94505060206122ea87828801612011565b93505060406122fb87828801611f5c565b925050606085013567ffffffffffffffff81111561231c5761231b611dc0565b5b61232887828801612283565b91505092959194509250565b600061233f82611f9e565b9050919050565b61234f81612334565b811461235a57600080fd5b50565b60008135905061236c81612346565b92915050565b60008060006060848603121561238b5761238a611dbb565b5b600061239986828701611f5c565b93505060206123aa8682870161235d565b92505060406123bb86828701611f5c565b9150509250925092565b600080604083850312156123dc576123db611dbb565b5b60006123ea85828601612011565b92505060206123fb85828601612011565b9150509250929050565b7f4e487b7100000000000000000000000000000000000000000000000000000000600052602260045260246000fd5b6000600282049050600182168061244c57607f821691505b602082108114156124605761245f612405565b5b50919050565b7f4552433732313a20617070726f76616c20746f2063757272656e74206f776e6560008201527f7200000000000000000000000000000000000000000000000000000000000000602082015250565b60006124c2602183611e8b565b91506124cd82612466565b604082019050919050565b600060208201905081810360008301526124f1816124b5565b9050919050565b7f4552433732313a20617070726f76652063616c6c6572206973206e6f7420746f60008201527f6b656e206f776e6572206e6f7220617070726f76656420666f7220616c6c0000602082015250565b6000612554603e83611e8b565b915061255f826124f8565b604082019050919050565b6000602082019050818103600083015261258381612547565b9050919050565b7f4552433732313a2063616c6c6572206973206e6f7420746f6b656e206f776e6560008201527f72206f7220617070726f76656400000000000000000000000000000000000000602082015250565b60006125e6602d83611e8b565b91506125f18261258a565b604082019050919050565b60006020820190508181036000830152612615816125d9565b9050919050565b7f4552433732313a20696e76616c696420746f6b656e2049440000000000000000600082015250565b6000612652601883611e8b565b915061265d8261261c565b602082019050919050565b6000602082019050818103600083015261268181612645565b9050919050565b7f4552433732313a2061646472657373207a65726f206973206e6f74206120766160008201527f6c6964206f776e65720000000000000000000000000000000000000000000000602082015250565b60006126e4602983611e8b565b91506126ef82612688565b604082019050919050565b60006020820190508181036000830152612713816126d7565b9050919050565b60008151905061272981611ffa565b92915050565b60006020828403121561274557612744611dbb565b5b60006127538482850161271a565b91505092915050565b60008151905061276b81612110565b92915050565b60006020828403121561278757612786611dbb565b5b60006127958482850161275c565b91505092915050565b7f4e487b7100000000000000000000000000000000000000000000000000000000600052601160045260246000fd5b60006127d882611f3b565b91506127e383611f3b565b9250827fffffffffffffffffffffffffffffffffffffffffffffffffffffffffffffffff038211156128185761281761279e565b5b828201905092915050565b600081905092915050565b600061283982611e80565b6128438185612823565b9350612853818560208601611e9c565b80840191505092915050565b600061286b828561282e565b9150612877828461282e565b91508190509392505050565b60008151905061289281611f45565b92915050565b6000602082840312156128ae576128ad611dbb565b5b60006128bc84828501612883565b91505092915050565b6128ce81612334565b82525050565b60006040820190506128e960008301856128c5565b6128f660208301846120b9565b9392505050565b7f4552433732313a207472616e736665722066726f6d20696e636f72726563742060008201527f6f776e6572000000000000000000000000000000000000000000000000000000602082015250565b6000612959602583611e8b565b9150612964826128fd565b604082019050919050565b600060208201905081810360008301526129888161294c565b9050919050565b7f4552433732313a207472616e7366657220746f20746865207a65726f2061646460008201527f7265737300000000000000000000000000000000000000000000000000000000602082015250565b60006129eb602483611e8b565b91506129f68261298f565b604082019050919050565b60006020820190508181036000830152612a1a816129de565b9050919050565b6000612a2c82611f3b565b9150612a3783611f3b565b925082821015612a4a57612a4961279e565b5b828203905092915050565b7f4552433732313a20617070726f766520746f2063616c6c657200000000000000600082015250565b6000612a8b601983611e8b565b9150612a9682612a55565b602082019050919050565b60006020820190508181036000830152612aba81612a7e565b9050919050565b7f4552433732313a207472616e7366657220746f206e6f6e20455243373231526560008201527f63656976657220696d706c656d656e7465720000000000000000000000000000602082015250565b6000612b1d603283611e8b565b9150612b2882612ac1565b604082019050919050565b60006020820190508181036000830152612b4c81612b10565b9050919050565b6000612b5e82611f3b565b91507fffffffffffffffffffffffffffffffffffffffffffffffffffffffffffffffff821415612b9157612b9061279e565b5b600182019050919050565b7f4e487b7100000000000000000000000000000000000000000000000000000000600052601260045260246000fd5b6000612bd682611f3b565b9150612be183611f3b565b925082612bf157612bf0612b9c565b5b828204905092915050565b6000612c0782611f3b565b9150612c1283611f3b565b925082612c2257612c21612b9c565b5b828206905092915050565b7f4e487b7100000000000000000000000000000000000000000000000000000000600052603260045260246000fd5b600081519050919050565b600082825260208201905092915050565b6000612c8382612c5c565b612c8d8185612c67565b9350612c9d818560208601611e9c565b612ca681611ecf565b840191505092915050565b6000608082019050612cc66000830187611fd0565b612cd36020830186611fd0565b612ce060408301856120b9565b8181036060830152612cf28184612c78565b905095945050505050565b600081519050612d0c81611df1565b92915050565b600060208284031215612d2857612d27611dbb565b5b6000612d3684828501612cfd565b91505092915050565b7f4552433732313a206d696e7420746f20746865207a65726f2061646472657373600082015250565b6000612d75602083611e8b565b9150612d8082612d3f565b602082019050919050565b60006020820190508181036000830152612da481612d68565b9050919050565b7f4552433732313a20746f6b656e20616c7265616479206d696e74656400000000600082015250565b6000612de1601c83611e8b565b9150612dec82612dab565b602082019050919050565b60006020820190508181036000830152612e1081612dd4565b905091905056fe60a060405234801561001057600080fd5b503373ffffffffffffffffffffffffffffffffffffffff1660808173ffffffffffffffffffffffffffffffffffffffff168152505060805161067961006e6000396000818161018e015281816101b6015261035101526106796000f3fe6080604052600436106100705760003560e01c8063893d20e81161004e578063893d20e8146100f6578063d0e30db014610121578063f3fef3a31461012b578063f96339301461014757610070565b806304d2dec614610075578063329a27e7146100a05780635e01eb5a146100cb575b600080fd5b34801561008157600080fd5b5061008a610172565b60405161009791906103e4565b60405180910390f35b3480156100ac57600080fd5b506100b561017a565b6040516100c29190610418565b60405180910390f35b3480156100d757600080fd5b506100e0610182565b6040516100ed91906103e4565b60405180910390f35b34801561010257600080fd5b5061010b61018a565b60405161011891906103e4565b60405180910390f35b6101296101b2565b005b610145600480360381019061014091906104a2565b6101b4565b005b34801561015357600080fd5b5061015c61034d565b60405161016991906104fd565b60405180910390f35b600030905090565b600047905090565b600033905090565b60007f0000000000000000000000000000000000000000000000000000000000000000905090565b565b7f000000000000000000000000000000000000000000000000000000000000000073ffffffffffffffffffffffffffffffffffffffff163373ffffffffffffffffffffffffffffffffffffffff1614610242576040517f08c379a000000000000000000000000000000000000000000000000000000000815260040161023990610575565b60405180910390fd5b3073ffffffffffffffffffffffffffffffffffffffff1663329a27e76040518163ffffffff1660e01b815260040160206040518083038186803b15801561028857600080fd5b505afa15801561029c573d6000803e3d6000fd5b505050506040513d601f19601f820116820180604052508101906102c091906105aa565b811115610302576040517f08c379a00000000000000000000000000000000000000000000000000000000081526004016102f990610623565b60405180910390fd5b8173ffffffffffffffffffffffffffffffffffffffff166108fc829081150290604051600060405180830381858888f19350505050158015610348573d6000803e3d6000fd5b505050565b60007f000000000000000000000000000000000000000000000000000000000000000073ffffffffffffffffffffffffffffffffffffffff163373ffffffffffffffffffffffffffffffffffffffff1614905090565b600073ffffffffffffffffffffffffffffffffffffffff82169050919050565b60006103ce826103a3565b9050919050565b6103de816103c3565b82525050565b60006020820190506103f960008301846103d5565b92915050565b6000819050919050565b610412816103ff565b82525050565b600060208201905061042d6000830184610409565b92915050565b600080fd5b6000610443826103a3565b9050919050565b61045381610438565b811461045e57600080fd5b50565b6000813590506104708161044a565b92915050565b61047f816103ff565b811461048a57600080fd5b50565b60008135905061049c81610476565b92915050565b600080604083850312156104b9576104b8610433565b5b60006104c785828601610461565b92505060206104d88582860161048d565b9150509250929050565b60008115159050919050565b6104f7816104e2565b82525050565b600060208201905061051260008301846104ee565b92915050565b600082825260208201905092915050565b7f6d73672e73656e6465722073686f756c64206265206f776e6572000000000000600082015250565b600061055f601a83610518565b915061056a82610529565b602082019050919050565b6000602082019050818103600083015261058e81610552565b9050919050565b6000815190506105a481610476565b92915050565b6000602082840312156105c0576105bf610433565b5b60006105ce84828501610595565b91505092915050565b7f62616c616e6365206973206e6f7420656e6f7567680000000000000000000000600082015250565b600061060d601583610518565b9150610618826105d7565b602082019050919050565b6000602082019050818103600083015261063c81610600565b905091905056fea2646970667358221220c5971fb690a8b264c67885927abaf3d253883b1d3ec70fc1dbc0d19b83c0e89064736f6c63430008090033a2646970667358221220400ca4a408c0282798477436f0a0f3080c08a6274e23990f9e247d05518fadd664736f6c63430008090033",
  "linkReferences": {},
  "deployedLinkReferences": {}
}