{
  "_format": "hh-sol-artifact-1",
  "contractName": "Wallet",
  "sourceName": "contracts/Wallet.sol",
  "abi": [
    {
      "inputs": [],
      "stateMutability": "nonpayable",
      "type": "constructor"
    },
    {
      "inputs": [],
      "name": "deposit",
      "outputs": [],
      "stateMutability": "payable",
      "type": "function"
    },
    {
      "inputs": [],
      "name": "getFlag",
      "outputs": [
        {
          "internalType": "bool",
          "name": "",
          "type": "bool"
        }
      ],
      "stateMutability": "view",
      "type": "function"
    },
    {
      "inputs": [],
      "name": "getOwner",
      "outputs": [
        {
          "internalType": "address",
          "name": "",
          "type": "address"
        }
      ],
      "stateMutability": "view",
      "type": "function"
    },
    {
      "inputs": [],
      "name": "getSender",
      "outputs": [
        {
          "internalType": "address",
          "name": "",
          "type": "address"
        }
      ],
      "stateMutability": "view",
      "type": "function"
    },
    {
      "inputs": [],
      "name": "getWalletAddress",
      "outputs": [
        {
          "internalType": "address",
          "name": "",
          "type": "address"
        }
      ],
      "stateMutability": "view",
      "type": "function"
    },
    {
      "inputs": [],
      "name": "getWalletBalance",
      "outputs": [
        {
          "internalType": "uint256",
          "name": "",
          "type": "uint256"
        }
      ],
      "stateMutability": "view",
      "type": "function"
    },
    {
      "inputs": [
        {
          "internalType": "address payable",
          "name": "receiveAddress",
          "type": "address"
        },
        {
          "internalType": "uint256",
          "name": "amount",
          "type": "uint256"
        }
      ],
      "name": "withdraw",
      "outputs": [],
      "stateMutability": "payable",
      "type": "function"
    }
  ],
  "bytecode": "0x60a060405234801561001057600080fd5b503373ffffffffffffffffffffffffffffffffffffffff1660808173ffffffffffffffffffffffffffffffffffffffff168152505060805161067961006e6000396000818161018e015281816101b6015261035101526106796000f3fe6080604052600436106100705760003560e01c8063893d20e81161004e578063893d20e8146100f6578063d0e30db014610121578063f3fef3a31461012b578063f96339301461014757610070565b806304d2dec614610075578063329a27e7146100a05780635e01eb5a146100cb575b600080fd5b34801561008157600080fd5b5061008a610172565b60405161009791906103e4565b60405180910390f35b3480156100ac57600080fd5b506100b561017a565b6040516100c29190610418565b60405180910390f35b3480156100d757600080fd5b506100e0610182565b6040516100ed91906103e4565b60405180910390f35b34801561010257600080fd5b5061010b61018a565b60405161011891906103e4565b60405180910390f35b6101296101b2565b005b610145600480360381019061014091906104a2565b6101b4565b005b34801561015357600080fd5b5061015c61034d565b60405161016991906104fd565b60405180910390f35b600030905090565b600047905090565b600033905090565b60007f0000000000000000000000000000000000000000000000000000000000000000905090565b565b7f000000000000000000000000000000000000000000000000000000000000000073ffffffffffffffffffffffffffffffffffffffff163373ffffffffffffffffffffffffffffffffffffffff1614610242576040517f08c379a000000000000000000000000000000000000000000000000000000000815260040161023990610575565b60405180910390fd5b3073ffffffffffffffffffffffffffffffffffffffff1663329a27e76040518163ffffffff1660e01b815260040160206040518083038186803b15801561028857600080fd5b505afa15801561029c573d6000803e3d6000fd5b505050506040513d601f19601f820116820180604052508101906102c091906105aa565b811115610302576040517f08c379a00000000000000000000000000000000000000000000000000000000081526004016102f990610623565b60405180910390fd5b8173ffffffffffffffffffffffffffffffffffffffff166108fc829081150290604051600060405180830381858888f19350505050158015610348573d6000803e3d6000fd5b505050565b60007f000000000000000000000000000000000000000000000000000000000000000073ffffffffffffffffffffffffffffffffffffffff163373ffffffffffffffffffffffffffffffffffffffff1614905090565b600073ffffffffffffffffffffffffffffffffffffffff82169050919050565b60006103ce826103a3565b9050919050565b6103de816103c3565b82525050565b60006020820190506103f960008301846103d5565b92915050565b6000819050919050565b610412816103ff565b82525050565b600060208201905061042d6000830184610409565b92915050565b600080fd5b6000610443826103a3565b9050919050565b61045381610438565b811461045e57600080fd5b50565b6000813590506104708161044a565b92915050565b61047f816103ff565b811461048a57600080fd5b50565b60008135905061049c81610476565b92915050565b600080604083850312156104b9576104b8610433565b5b60006104c785828601610461565b92505060206104d88582860161048d565b9150509250929050565b60008115159050919050565b6104f7816104e2565b82525050565b600060208201905061051260008301846104ee565b92915050565b600082825260208201905092915050565b7f6d73672e73656e6465722073686f756c64206265206f776e6572000000000000600082015250565b600061055f601a83610518565b915061056a82610529565b602082019050919050565b6000602082019050818103600083015261058e81610552565b9050919050565b6000815190506105a481610476565b92915050565b6000602082840312156105c0576105bf610433565b5b60006105ce84828501610595565b91505092915050565b7f62616c616e6365206973206e6f7420656e6f7567680000000000000000000000600082015250565b600061060d601583610518565b9150610618826105d7565b602082019050919050565b6000602082019050818103600083015261063c81610600565b905091905056fea2646970667358221220c5971fb690a8b264c67885927abaf3d253883b1d3ec70fc1dbc0d19b83c0e89064736f6c63430008090033",
  "linkReferences": {},
  "deployedLinkReferences": {}
}